{
  "_format": "hh-sol-artifact-1",
  "contractName": "Checkout",
  "sourceName": "contracts/Checkout.sol",
  "abi": [
    {
      "inputs": [
        {
          "internalType": "uint256",
          "name": "_fixedPaymentAmount",
          "type": "uint256"
        }
      ],
      "stateMutability": "nonpayable",
      "type": "constructor"
    },
    {
      "inputs": [],
      "name": "ReentrancyGuardReentrantCall",
      "type": "error"
    },
    {
      "anonymous": false,
      "inputs": [
        {
          "indexed": true,
          "internalType": "address",
          "name": "owner",
          "type": "address"
        },
        {
          "indexed": false,
          "internalType": "uint256",
          "name": "amount",
          "type": "uint256"
        }
      ],
      "name": "FundsWithdrawn",
      "type": "event"
    },
    {
      "anonymous": false,
      "inputs": [
        {
          "indexed": true,
          "internalType": "address",
          "name": "payer",
          "type": "address"
        },
        {
          "indexed": false,
          "internalType": "uint256",
          "name": "amount",
          "type": "uint256"
        },
        {
          "indexed": false,
          "internalType": "string",
          "name": "orderId",
          "type": "string"
        },
        {
          "indexed": false,
          "internalType": "uint256",
          "name": "timestamp",
          "type": "uint256"
        }
      ],
      "name": "PaymentReceived",
      "type": "event"
    },
    {
      "anonymous": false,
      "inputs": [
        {
          "indexed": false,
          "internalType": "string",
          "name": "code",
          "type": "string"
        },
        {
          "indexed": false,
          "internalType": "uint256",
          "name": "discount",
          "type": "uint256"
        }
      ],
      "name": "PromoCodeUpdated",
      "type": "event"
    },
    {
      "inputs": [],
      "name": "fixedPaymentAmount",
      "outputs": [
        {
          "internalType": "uint256",
          "name": "",
          "type": "uint256"
        }
      ],
      "stateMutability": "view",
      "type": "function"
    },
    {
      "inputs": [],
      "name": "getAllPayers",
      "outputs": [
        {
          "internalType": "address[]",
          "name": "",
          "type": "address[]"
        }
      ],
      "stateMutability": "view",
      "type": "function"
    },
    {
      "inputs": [],
      "name": "getAllPromoCodes",
      "outputs": [
        {
          "internalType": "string[]",
          "name": "codes",
          "type": "string[]"
        },
        {
          "internalType": "uint256[]",
          "name": "discounts",
          "type": "uint256[]"
        }
      ],
      "stateMutability": "view",
      "type": "function"
    },
    {
      "inputs": [],
      "name": "getBalance",
      "outputs": [
        {
          "internalType": "uint256",
          "name": "",
          "type": "uint256"
        }
      ],
      "stateMutability": "view",
      "type": "function"
    },
    {
      "inputs": [
        {
          "internalType": "address",
          "name": "payer",
          "type": "address"
        }
      ],
      "name": "getPaymentsByAddress",
      "outputs": [
        {
          "components": [
            {
              "internalType": "uint256",
              "name": "amount",
              "type": "uint256"
            },
            {
              "internalType": "uint256",
              "name": "timestamp",
              "type": "uint256"
            },
            {
              "internalType": "string",
              "name": "orderId",
              "type": "string"
            }
          ],
          "internalType": "struct Checkout.Payment[]",
          "name": "",
          "type": "tuple[]"
        }
      ],
      "stateMutability": "view",
      "type": "function"
    },
    {
      "inputs": [],
      "name": "owner",
      "outputs": [
        {
          "internalType": "address",
          "name": "",
          "type": "address"
        }
      ],
      "stateMutability": "view",
      "type": "function"
    },
    {
      "inputs": [
        {
          "internalType": "string",
          "name": "orderId",
          "type": "string"
        },
        {
          "internalType": "string",
          "name": "promoCode",
          "type": "string"
        }
      ],
      "name": "pay",
      "outputs": [],
      "stateMutability": "payable",
      "type": "function"
    },
    {
      "inputs": [
        {
          "internalType": "address",
          "name": "",
          "type": "address"
        },
        {
          "internalType": "uint256",
          "name": "",
          "type": "uint256"
        }
      ],
      "name": "payments",
      "outputs": [
        {
          "internalType": "uint256",
          "name": "amount",
          "type": "uint256"
        },
        {
          "internalType": "uint256",
          "name": "timestamp",
          "type": "uint256"
        },
        {
          "internalType": "string",
          "name": "orderId",
          "type": "string"
        }
      ],
      "stateMutability": "view",
      "type": "function"
    },
    {
      "inputs": [
        {
          "internalType": "string",
          "name": "",
          "type": "string"
        }
      ],
      "name": "promoCodes",
      "outputs": [
        {
          "internalType": "uint256",
          "name": "",
          "type": "uint256"
        }
      ],
      "stateMutability": "view",
      "type": "function"
    },
    {
      "inputs": [
        {
          "internalType": "string",
          "name": "code",
          "type": "string"
        }
      ],
      "name": "removePromoCode",
      "outputs": [],
      "stateMutability": "nonpayable",
      "type": "function"
    },
    {
      "inputs": [
        {
          "internalType": "string",
          "name": "code",
          "type": "string"
        },
        {
          "internalType": "uint256",
          "name": "discount",
          "type": "uint256"
        }
      ],
      "name": "setPromoCode",
      "outputs": [],
      "stateMutability": "nonpayable",
      "type": "function"
    },
    {
      "inputs": [],
      "name": "withdraw",
      "outputs": [],
      "stateMutability": "nonpayable",
      "type": "function"
    }
  ],
  "bytecode": "0x60806040523480156200001157600080fd5b506040516200230e3803806200230e8339818101604052810190620000379190620000ce565b600160008190555033600160006101000a81548173ffffffffffffffffffffffffffffffffffffffff021916908373ffffffffffffffffffffffffffffffffffffffff160217905550806002819055505062000100565b600080fd5b6000819050919050565b620000a88162000093565b8114620000b457600080fd5b50565b600081519050620000c8816200009d565b92915050565b600060208284031215620000e757620000e66200008e565b5b6000620000f784828501620000b7565b91505092915050565b6121fe80620001106000396000f3fe6080604052600436106100a75760003560e01c80633ccfd60b116100645780633ccfd60b146101d0578063574082af146101e75780638da5cb5b14610210578063ab63385c1461023b578063ad444b091461027a578063f46e588c146102a6576100a7565b806308b80c60146100ac5780630b54f998146100e957806312065fe01461012657806312b777001461015157806316cc455f1461017c5780631e07ef96146101a7575b600080fd5b3480156100b857600080fd5b506100d360048036038101906100ce9190611062565b6102c2565b6040516100e0919061124a565b60405180910390f35b3480156100f557600080fd5b50610110600480360381019061010b91906113a1565b610406565b60405161011d91906113f9565b60405180910390f35b34801561013257600080fd5b5061013b610434565b60405161014891906113f9565b60405180910390f35b34801561015d57600080fd5b5061016661043c565b60405161017391906113f9565b60405180910390f35b34801561018857600080fd5b50610191610442565b60405161019e91906114d2565b60405180910390f35b3480156101b357600080fd5b506101ce60048036038101906101c99190611520565b6104d0565b005b3480156101dc57600080fd5b506101e5610660565b005b3480156101f357600080fd5b5061020e600480360381019061020991906113a1565b610824565b005b34801561021c57600080fd5b50610225610974565b604051610232919061158b565b60405180910390f35b34801561024757600080fd5b50610262600480360381019061025d91906115a6565b61099a565b60405161027193929190611630565b60405180910390f35b34801561028657600080fd5b5061028f610a69565b60405161029d9291906117df565b60405180910390f35b6102c060048036038101906102bb9190611816565b610c55565b005b6060600360008373ffffffffffffffffffffffffffffffffffffffff1673ffffffffffffffffffffffffffffffffffffffff168152602001908152602001600020805480602002602001604051908101604052809291908181526020016000905b828210156103fb5783829060005260206000209060030201604051806060016040529081600082015481526020016001820154815260200160028201805461036a906118bd565b80601f0160208091040260200160405190810160405280929190818152602001828054610396906118bd565b80156103e35780601f106103b8576101008083540402835291602001916103e3565b820191906000526020600020905b8154815290600101906020018083116103c657829003601f168201915b50505050508152505081526020019060010190610323565b505050509050919050565b6006818051602081018201805184825260208301602085012081835280955050505050506000915090505481565b600047905090565b60025481565b606060048054806020026020016040519081016040528092919081815260200182805480156104c657602002820191906000526020600020905b8160009054906101000a900473ffffffffffffffffffffffffffffffffffffffff1673ffffffffffffffffffffffffffffffffffffffff168152602001906001019080831161047c575b5050505050905090565b600160009054906101000a900473ffffffffffffffffffffffffffffffffffffffff1673ffffffffffffffffffffffffffffffffffffffff163373ffffffffffffffffffffffffffffffffffffffff1614610560576040517f08c379a00000000000000000000000000000000000000000000000000000000081526004016105579061193a565b60405180910390fd5b60648111156105a4576040517f08c379a000000000000000000000000000000000000000000000000000000000815260040161059b906119cc565b60405180910390fd5b60006006836040516105b69190611a28565b90815260200160405180910390205403610600576007829080600181540180825580915050600190039060005260206000200160009091909190915090816105fe9190611beb565b505b806006836040516106119190611a28565b9081526020016040518091039020819055507f498c6259aad88cf0fc1a55b2e39b5cf7a4f52df84a187aee344cfc70c0f61cac8282604051610654929190611cbd565b60405180910390a15050565b600160009054906101000a900473ffffffffffffffffffffffffffffffffffffffff1673ffffffffffffffffffffffffffffffffffffffff163373ffffffffffffffffffffffffffffffffffffffff16146106f0576040517f08c379a00000000000000000000000000000000000000000000000000000000081526004016106e79061193a565b60405180910390fd5b6106f8610fa0565b600047905060008111610740576040517f08c379a000000000000000000000000000000000000000000000000000000000815260040161073790611d39565b60405180910390fd5b600160009054906101000a900473ffffffffffffffffffffffffffffffffffffffff1673ffffffffffffffffffffffffffffffffffffffff166108fc829081150290604051600060405180830381858888f193505050501580156107a8573d6000803e3d6000fd5b50600160009054906101000a900473ffffffffffffffffffffffffffffffffffffffff1673ffffffffffffffffffffffffffffffffffffffff167feaff4b37086828766ad3268786972c0cd24259d4c87a80f9d3963a3c3d999b0d8260405161081191906113f9565b60405180910390a250610822610fe6565b565b600160009054906101000a900473ffffffffffffffffffffffffffffffffffffffff1673ffffffffffffffffffffffffffffffffffffffff163373ffffffffffffffffffffffffffffffffffffffff16146108b4576040517f08c379a00000000000000000000000000000000000000000000000000000000081526004016108ab9061193a565b60405180910390fd5b60006006826040516108c69190611a28565b90815260200160405180910390205411610915576040517f08c379a000000000000000000000000000000000000000000000000000000000815260040161090c90611da5565b60405180910390fd5b6006816040516109259190611a28565b9081526020016040518091039020600090557f498c6259aad88cf0fc1a55b2e39b5cf7a4f52df84a187aee344cfc70c0f61cac816000604051610969929190611e00565b60405180910390a150565b600160009054906101000a900473ffffffffffffffffffffffffffffffffffffffff1681565b600360205281600052604060002081815481106109b657600080fd5b9060005260206000209060030201600091509150508060000154908060010154908060020180546109e6906118bd565b80601f0160208091040260200160405190810160405280929190818152602001828054610a12906118bd565b8015610a5f5780601f10610a3457610100808354040283529160200191610a5f565b820191906000526020600020905b815481529060010190602001808311610a4257829003601f168201915b5050505050905083565b606080600060078054905090508067ffffffffffffffff811115610a9057610a8f611276565b5b604051908082528060200260200182016040528015610ac357816020015b6060815260200190600190039081610aae5790505b5092508067ffffffffffffffff811115610ae057610adf611276565b5b604051908082528060200260200182016040528015610b0e5781602001602082028036833780820191505090505b50915060005b81811015610c4f5760078181548110610b3057610b2f611e30565b5b906000526020600020018054610b45906118bd565b80601f0160208091040260200160405190810160405280929190818152602001828054610b71906118bd565b8015610bbe5780601f10610b9357610100808354040283529160200191610bbe565b820191906000526020600020905b815481529060010190602001808311610ba157829003601f168201915b5050505050848281518110610bd657610bd5611e30565b5b6020026020010181905250600660078281548110610bf757610bf6611e30565b5b90600052602060002001604051610c0e9190611ee2565b908152602001604051809103902054838281518110610c3057610c2f611e30565b5b6020026020010181815250508080610c4790611f28565b915050610b14565b50509091565b610c5d610fa0565b6000825111610ca1576040517f08c379a0000000000000000000000000000000000000000000000000000000008152600401610c9890611fbc565b60405180910390fd5b60006002549050600082511115610d43576000600683604051610cc49190611a28565b90815260200160405180910390205490506064811115610d19576040517f08c379a0000000000000000000000000000000000000000000000000000000008152600401610d1090612028565b60405180910390fd5b6064816064610d289190612048565b600254610d35919061207c565b610d3f91906120ed565b9150505b803414610d85576040517f08c379a0000000000000000000000000000000000000000000000000000000008152600401610d7c9061216a565b60405180910390fd5b600560003373ffffffffffffffffffffffffffffffffffffffff1673ffffffffffffffffffffffffffffffffffffffff16815260200190815260200160002060009054906101000a900460ff16610e92576004339080600181540180825580915050600190039060005260206000200160009091909190916101000a81548173ffffffffffffffffffffffffffffffffffffffff021916908373ffffffffffffffffffffffffffffffffffffffff1602179055506001600560003373ffffffffffffffffffffffffffffffffffffffff1673ffffffffffffffffffffffffffffffffffffffff16815260200190815260200160002060006101000a81548160ff0219169083151502179055505b600360003373ffffffffffffffffffffffffffffffffffffffff1673ffffffffffffffffffffffffffffffffffffffff168152602001908152602001600020604051806060016040528034815260200142815260200185815250908060018154018082558091505060019003906000526020600020906003020160009091909190915060008201518160000155602082015181600101556040820151816002019081610f3e9190611beb565b5050503373ffffffffffffffffffffffffffffffffffffffff167f5ff25fcf87b113b44b5102433bd818b0feec4af7a5474679a61e546255ccba41348542604051610f8b9392919061218a565b60405180910390a250610f9c610fe6565b5050565b600260005403610fdc576040517f3ee5aeb500000000000000000000000000000000000000000000000000000000815260040160405180910390fd5b6002600081905550565b6001600081905550565b6000604051905090565b600080fd5b600080fd5b600073ffffffffffffffffffffffffffffffffffffffff82169050919050565b600061102f82611004565b9050919050565b61103f81611024565b811461104a57600080fd5b50565b60008135905061105c81611036565b92915050565b60006020828403121561107857611077610ffa565b5b60006110868482850161104d565b91505092915050565b600081519050919050565b600082825260208201905092915050565b6000819050602082019050919050565b6000819050919050565b6110ce816110bb565b82525050565b600081519050919050565b600082825260208201905092915050565b60005b8381101561110e5780820151818401526020810190506110f3565b60008484015250505050565b6000601f19601f8301169050919050565b6000611136826110d4565b61114081856110df565b93506111508185602086016110f0565b6111598161111a565b840191505092915050565b600060608301600083015161117c60008601826110c5565b50602083015161118f60208601826110c5565b50604083015184820360408601526111a7828261112b565b9150508091505092915050565b60006111c08383611164565b905092915050565b6000602082019050919050565b60006111e08261108f565b6111ea818561109a565b9350836020820285016111fc856110ab565b8060005b85811015611238578484038952815161121985826111b4565b9450611224836111c8565b925060208a01995050600181019050611200565b50829750879550505050505092915050565b6000602082019050818103600083015261126481846111d5565b905092915050565b600080fd5b600080fd5b7f4e487b7100000000000000000000000000000000000000000000000000000000600052604160045260246000fd5b6112ae8261111a565b810181811067ffffffffffffffff821117156112cd576112cc611276565b5b80604052505050565b60006112e0610ff0565b90506112ec82826112a5565b919050565b600067ffffffffffffffff82111561130c5761130b611276565b5b6113158261111a565b9050602081019050919050565b82818337600083830152505050565b600061134461133f846112f1565b6112d6565b9050828152602081018484840111156113605761135f611271565b5b61136b848285611322565b509392505050565b600082601f8301126113885761138761126c565b5b8135611398848260208601611331565b91505092915050565b6000602082840312156113b7576113b6610ffa565b5b600082013567ffffffffffffffff8111156113d5576113d4610fff565b5b6113e184828501611373565b91505092915050565b6113f3816110bb565b82525050565b600060208201905061140e60008301846113ea565b92915050565b600081519050919050565b600082825260208201905092915050565b6000819050602082019050919050565b61144981611024565b82525050565b600061145b8383611440565b60208301905092915050565b6000602082019050919050565b600061147f82611414565b611489818561141f565b935061149483611430565b8060005b838110156114c55781516114ac888261144f565b97506114b783611467565b925050600181019050611498565b5085935050505092915050565b600060208201905081810360008301526114ec8184611474565b905092915050565b6114fd816110bb565b811461150857600080fd5b50565b60008135905061151a816114f4565b92915050565b6000806040838503121561153757611536610ffa565b5b600083013567ffffffffffffffff81111561155557611554610fff565b5b61156185828601611373565b92505060206115728582860161150b565b9150509250929050565b61158581611024565b82525050565b60006020820190506115a0600083018461157c565b92915050565b600080604083850312156115bd576115bc610ffa565b5b60006115cb8582860161104d565b92505060206115dc8582860161150b565b9150509250929050565b600082825260208201905092915050565b6000611602826110d4565b61160c81856115e6565b935061161c8185602086016110f0565b6116258161111a565b840191505092915050565b600060608201905061164560008301866113ea565b61165260208301856113ea565b818103604083015261166481846115f7565b9050949350505050565b600081519050919050565b600082825260208201905092915050565b6000819050602082019050919050565b60006116a6838361112b565b905092915050565b6000602082019050919050565b60006116c68261166e565b6116d08185611679565b9350836020820285016116e28561168a565b8060005b8581101561171e57848403895281516116ff858261169a565b945061170a836116ae565b925060208a019950506001810190506116e6565b50829750879550505050505092915050565b600081519050919050565b600082825260208201905092915050565b6000819050602082019050919050565b600061176883836110c5565b60208301905092915050565b6000602082019050919050565b600061178c82611730565b611796818561173b565b93506117a18361174c565b8060005b838110156117d25781516117b9888261175c565b97506117c483611774565b9250506001810190506117a5565b5085935050505092915050565b600060408201905081810360008301526117f981856116bb565b9050818103602083015261180d8184611781565b90509392505050565b6000806040838503121561182d5761182c610ffa565b5b600083013567ffffffffffffffff81111561184b5761184a610fff565b5b61185785828601611373565b925050602083013567ffffffffffffffff81111561187857611877610fff565b5b61188485828601611373565b9150509250929050565b7f4e487b7100000000000000000000000000000000000000000000000000000000600052602260045260246000fd5b600060028204905060018216806118d557607f821691505b6020821081036118e8576118e761188e565b5b50919050565b7f596f7520617265206e6f7420746865206f776e65720000000000000000000000600082015250565b60006119246015836115e6565b915061192f826118ee565b602082019050919050565b6000602082019050818103600083015261195381611917565b9050919050565b7f446973636f756e742070657263656e74616765206d757374206265206265747760008201527f65656e203020616e642031303000000000000000000000000000000000000000602082015250565b60006119b6602d836115e6565b91506119c18261195a565b604082019050919050565b600060208201905081810360008301526119e5816119a9565b9050919050565b600081905092915050565b6000611a02826110d4565b611a0c81856119ec565b9350611a1c8185602086016110f0565b80840191505092915050565b6000611a3482846119f7565b915081905092915050565b60008190508160005260206000209050919050565b60006020601f8301049050919050565b600082821b905092915050565b600060088302611aa17fffffffffffffffffffffffffffffffffffffffffffffffffffffffffffffffff82611a64565b611aab8683611a64565b95508019841693508086168417925050509392505050565b6000819050919050565b6000611ae8611ae3611ade846110bb565b611ac3565b6110bb565b9050919050565b6000819050919050565b611b0283611acd565b611b16611b0e82611aef565b848454611a71565b825550505050565b600090565b611b2b611b1e565b611b36818484611af9565b505050565b5b81811015611b5a57611b4f600082611b23565b600181019050611b3c565b5050565b601f821115611b9f57611b7081611a3f565b611b7984611a54565b81016020851015611b88578190505b611b9c611b9485611a54565b830182611b3b565b50505b505050565b600082821c905092915050565b6000611bc260001984600802611ba4565b1980831691505092915050565b6000611bdb8383611bb1565b9150826002028217905092915050565b611bf4826110d4565b67ffffffffffffffff811115611c0d57611c0c611276565b5b611c1782546118bd565b611c22828285611b5e565b600060209050601f831160018114611c555760008415611c43578287015190505b611c4d8582611bcf565b865550611cb5565b601f198416611c6386611a3f565b60005b82811015611c8b57848901518255600182019150602085019450602081019050611c66565b86831015611ca85784890151611ca4601f891682611bb1565b8355505b6001600288020188555050505b505050505050565b60006040820190508181036000830152611cd781856115f7565b9050611ce660208301846113ea565b9392505050565b7f4e6f2066756e647320746f207769746864726177000000000000000000000000600082015250565b6000611d236014836115e6565b9150611d2e82611ced565b602082019050919050565b60006020820190508181036000830152611d5281611d16565b9050919050565b7f50726f6d6f20636f646520646f6573206e6f7420657869737400000000000000600082015250565b6000611d8f6019836115e6565b9150611d9a82611d59565b602082019050919050565b60006020820190508181036000830152611dbe81611d82565b9050919050565b6000819050919050565b6000611dea611de5611de084611dc5565b611ac3565b6110bb565b9050919050565b611dfa81611dcf565b82525050565b60006040820190508181036000830152611e1a81856115f7565b9050611e296020830184611df1565b9392505050565b7f4e487b7100000000000000000000000000000000000000000000000000000000600052603260045260246000fd5b60008154611e6c816118bd565b611e7681866119ec565b94506001821660008114611e915760018114611ea657611ed9565b60ff1983168652811515820286019350611ed9565b611eaf85611a3f565b60005b83811015611ed157815481890152600182019150602081019050611eb2565b838801955050505b50505092915050565b6000611eee8284611e5f565b915081905092915050565b7f4e487b7100000000000000000000000000000000000000000000000000000000600052601160045260246000fd5b6000611f33826110bb565b91507fffffffffffffffffffffffffffffffffffffffffffffffffffffffffffffffff8203611f6557611f64611ef9565b5b600182019050919050565b7f4f72646572204944206973207265717569726564000000000000000000000000600082015250565b6000611fa66014836115e6565b9150611fb182611f70565b602082019050919050565b60006020820190508181036000830152611fd581611f99565b9050919050565b7f496e76616c696420646973636f756e742070657263656e746167650000000000600082015250565b6000612012601b836115e6565b915061201d82611fdc565b602082019050919050565b6000602082019050818103600083015261204181612005565b9050919050565b6000612053826110bb565b915061205e836110bb565b925082820390508181111561207657612075611ef9565b5b92915050565b6000612087826110bb565b9150612092836110bb565b92508282026120a0816110bb565b915082820484148315176120b7576120b6611ef9565b5b5092915050565b7f4e487b7100000000000000000000000000000000000000000000000000000000600052601260045260246000fd5b60006120f8826110bb565b9150612103836110bb565b925082612113576121126120be565b5b828204905092915050565b7f496e636f7272656374207061796d656e7420616d6f756e740000000000000000600082015250565b60006121546018836115e6565b915061215f8261211e565b602082019050919050565b6000602082019050818103600083015261218381612147565b9050919050565b600060608201905061219f60008301866113ea565b81810360208301526121b181856115f7565b90506121c060408301846113ea565b94935050505056fea2646970667358221220a2f9e210316fa52f010f4422f72d5473b0fc1526675f1968226c885fa3e978ee64736f6c63430008140033",
  "linkReferences": {},
  "deployedLinkReferences": {}
}