{
  "_format": "hh-sol-artifact-1",
  "contractName": "Checkout",
  "sourceName": "contracts/Checkout.sol",
  "abi": [
    {
      "inputs": [
        {
          "internalType": "uint256",
          "name": "_fixedPaymentAmount",
          "type": "uint256"
        }
      ],
      "stateMutability": "nonpayable",
      "type": "constructor"
    },
    {
      "inputs": [],
      "name": "ReentrancyGuardReentrantCall",
      "type": "error"
    },
    {
      "anonymous": false,
      "inputs": [
        {
          "indexed": true,
          "internalType": "address",
          "name": "owner",
          "type": "address"
        },
        {
          "indexed": false,
          "internalType": "uint256",
          "name": "amount",
          "type": "uint256"
        }
      ],
      "name": "FundsWithdrawn",
      "type": "event"
    },
    {
      "anonymous": false,
      "inputs": [
        {
          "indexed": true,
          "internalType": "address",
          "name": "previousOwner",
          "type": "address"
        },
        {
          "indexed": true,
          "internalType": "address",
          "name": "newOwner",
          "type": "address"
        }
      ],
      "name": "OwnershipTransferred",
      "type": "event"
    },
    {
      "anonymous": false,
      "inputs": [
        {
          "indexed": false,
          "internalType": "uint256",
          "name": "oldAmount",
          "type": "uint256"
        },
        {
          "indexed": false,
          "internalType": "uint256",
          "name": "newAmount",
          "type": "uint256"
        }
      ],
      "name": "PaymentAmountUpdated",
      "type": "event"
    },
    {
      "anonymous": false,
      "inputs": [
        {
          "indexed": true,
          "internalType": "address",
          "name": "payer",
          "type": "address"
        },
        {
          "indexed": false,
          "internalType": "uint256",
          "name": "amount",
          "type": "uint256"
        },
        {
          "indexed": false,
          "internalType": "string",
          "name": "orderId",
          "type": "string"
        },
        {
          "indexed": false,
          "internalType": "uint256",
          "name": "timestamp",
          "type": "uint256"
        }
      ],
      "name": "PaymentReceived",
      "type": "event"
    },
    {
      "anonymous": false,
      "inputs": [
        {
          "indexed": false,
          "internalType": "string",
          "name": "code",
          "type": "string"
        },
        {
          "indexed": false,
          "internalType": "uint256",
          "name": "discount",
          "type": "uint256"
        }
      ],
      "name": "PromoCodeUpdated",
      "type": "event"
    },
    {
      "inputs": [],
      "name": "fixedPaymentAmount",
      "outputs": [
        {
          "internalType": "uint256",
          "name": "",
          "type": "uint256"
        }
      ],
      "stateMutability": "view",
      "type": "function"
    },
    {
      "inputs": [],
      "name": "getAllPayers",
      "outputs": [
        {
          "internalType": "address[]",
          "name": "",
          "type": "address[]"
        }
      ],
      "stateMutability": "view",
      "type": "function"
    },
    {
      "inputs": [],
      "name": "getAllPromoCodes",
      "outputs": [
        {
          "internalType": "string[]",
          "name": "codes",
          "type": "string[]"
        },
        {
          "internalType": "uint256[]",
          "name": "discounts",
          "type": "uint256[]"
        }
      ],
      "stateMutability": "view",
      "type": "function"
    },
    {
      "inputs": [],
      "name": "getBalance",
      "outputs": [
        {
          "internalType": "uint256",
          "name": "",
          "type": "uint256"
        }
      ],
      "stateMutability": "view",
      "type": "function"
    },
    {
      "inputs": [
        {
          "internalType": "address",
          "name": "payer",
          "type": "address"
        }
      ],
      "name": "getPaymentsByAddress",
      "outputs": [
        {
          "components": [
            {
              "internalType": "uint256",
              "name": "amount",
              "type": "uint256"
            },
            {
              "internalType": "uint256",
              "name": "timestamp",
              "type": "uint256"
            },
            {
              "internalType": "string",
              "name": "orderId",
              "type": "string"
            }
          ],
          "internalType": "struct Checkout.Payment[]",
          "name": "",
          "type": "tuple[]"
        }
      ],
      "stateMutability": "view",
      "type": "function"
    },
    {
      "inputs": [],
      "name": "owner",
      "outputs": [
        {
          "internalType": "address",
          "name": "",
          "type": "address"
        }
      ],
      "stateMutability": "view",
      "type": "function"
    },
    {
      "inputs": [
        {
          "internalType": "string",
          "name": "orderId",
          "type": "string"
        },
        {
          "internalType": "string",
          "name": "promoCode",
          "type": "string"
        }
      ],
      "name": "pay",
      "outputs": [],
      "stateMutability": "payable",
      "type": "function"
    },
    {
      "inputs": [
        {
          "internalType": "address",
          "name": "",
          "type": "address"
        },
        {
          "internalType": "uint256",
          "name": "",
          "type": "uint256"
        }
      ],
      "name": "payments",
      "outputs": [
        {
          "internalType": "uint256",
          "name": "amount",
          "type": "uint256"
        },
        {
          "internalType": "uint256",
          "name": "timestamp",
          "type": "uint256"
        },
        {
          "internalType": "string",
          "name": "orderId",
          "type": "string"
        }
      ],
      "stateMutability": "view",
      "type": "function"
    },
    {
      "inputs": [
        {
          "internalType": "string",
          "name": "",
          "type": "string"
        }
      ],
      "name": "promoCodes",
      "outputs": [
        {
          "internalType": "uint256",
          "name": "",
          "type": "uint256"
        }
      ],
      "stateMutability": "view",
      "type": "function"
    },
    {
      "inputs": [
        {
          "internalType": "string",
          "name": "code",
          "type": "string"
        }
      ],
      "name": "removePromoCode",
      "outputs": [],
      "stateMutability": "nonpayable",
      "type": "function"
    },
    {
      "inputs": [
        {
          "internalType": "string",
          "name": "code",
          "type": "string"
        },
        {
          "internalType": "uint256",
          "name": "discount",
          "type": "uint256"
        }
      ],
      "name": "setPromoCode",
      "outputs": [],
      "stateMutability": "nonpayable",
      "type": "function"
    },
    {
      "inputs": [
        {
          "internalType": "address",
          "name": "newOwner",
          "type": "address"
        }
      ],
      "name": "transferOwnership",
      "outputs": [],
      "stateMutability": "nonpayable",
      "type": "function"
    },
    {
      "inputs": [
        {
          "internalType": "uint256",
          "name": "newAmount",
          "type": "uint256"
        }
      ],
      "name": "updatePaymentAmount",
      "outputs": [],
      "stateMutability": "nonpayable",
      "type": "function"
    },
    {
      "inputs": [],
      "name": "withdraw",
      "outputs": [],
      "stateMutability": "nonpayable",
      "type": "function"
    }
  ],
  "bytecode": "0x60806040523480156200001157600080fd5b50604051620027cd380380620027cd8339818101604052810190620000379190620000ce565b600160008190555033600160006101000a81548173ffffffffffffffffffffffffffffffffffffffff021916908373ffffffffffffffffffffffffffffffffffffffff160217905550806002819055505062000100565b600080fd5b6000819050919050565b620000a88162000093565b8114620000b457600080fd5b50565b600081519050620000c8816200009d565b92915050565b600060208284031215620000e757620000e66200008e565b5b6000620000f784828501620000b7565b91505092915050565b6126bd80620001106000396000f3fe6080604052600436106100dd5760003560e01c80633ce2ff421161007f578063ab63385c11610059578063ab63385c1461029a578063ad444b09146102d9578063f2fde38b14610305578063f46e588c1461032e576100dd565b80633ce2ff421461021d578063574082af146102465780638da5cb5b1461026f576100dd565b806312b77700116100bb57806312b777001461018757806316cc455f146101b25780631e07ef96146101dd5780633ccfd60b14610206576100dd565b806308b80c60146100e25780630b54f9981461011f57806312065fe01461015c575b600080fd5b3480156100ee57600080fd5b50610109600480360381019061010491906113cd565b61034a565b60405161011691906115b5565b60405180910390f35b34801561012b57600080fd5b506101466004803603810190610141919061170c565b61048e565b6040516101539190611764565b60405180910390f35b34801561016857600080fd5b506101716104bc565b60405161017e9190611764565b60405180910390f35b34801561019357600080fd5b5061019c6104c4565b6040516101a99190611764565b60405180910390f35b3480156101be57600080fd5b506101c76104ca565b6040516101d4919061183d565b60405180910390f35b3480156101e957600080fd5b5061020460048036038101906101ff919061188b565b610558565b005b34801561021257600080fd5b5061021b6106e8565b005b34801561022957600080fd5b50610244600480360381019061023f91906118e7565b6108ac565b005b34801561025257600080fd5b5061026d6004803603810190610268919061170c565b6109ca565b005b34801561027b57600080fd5b50610284610b1a565b6040516102919190611923565b60405180910390f35b3480156102a657600080fd5b506102c160048036038101906102bc919061193e565b610b40565b6040516102d0939291906119c8565b60405180910390f35b3480156102e557600080fd5b506102ee610c0f565b6040516102fc929190611b77565b60405180910390f35b34801561031157600080fd5b5061032c600480360381019061032791906113cd565b610dfb565b005b61034860048036038101906103439190611bae565b610fc0565b005b6060600360008373ffffffffffffffffffffffffffffffffffffffff1673ffffffffffffffffffffffffffffffffffffffff168152602001908152602001600020805480602002602001604051908101604052809291908181526020016000905b82821015610483578382906000526020600020906003020160405180606001604052908160008201548152602001600182015481526020016002820180546103f290611c55565b80601f016020809104026020016040519081016040528092919081815260200182805461041e90611c55565b801561046b5780601f106104405761010080835404028352916020019161046b565b820191906000526020600020905b81548152906001019060200180831161044e57829003601f168201915b505050505081525050815260200190600101906103ab565b505050509050919050565b6006818051602081018201805184825260208301602085012081835280955050505050506000915090505481565b600047905090565b60025481565b6060600480548060200260200160405190810160405280929190818152602001828054801561054e57602002820191906000526020600020905b8160009054906101000a900473ffffffffffffffffffffffffffffffffffffffff1673ffffffffffffffffffffffffffffffffffffffff1681526020019060010190808311610504575b5050505050905090565b600160009054906101000a900473ffffffffffffffffffffffffffffffffffffffff1673ffffffffffffffffffffffffffffffffffffffff163373ffffffffffffffffffffffffffffffffffffffff16146105e8576040517f08c379a00000000000000000000000000000000000000000000000000000000081526004016105df90611cd2565b60405180910390fd5b606481111561062c576040517f08c379a000000000000000000000000000000000000000000000000000000000815260040161062390611d64565b60405180910390fd5b600060068360405161063e9190611dc0565b90815260200160405180910390205403610688576007829080600181540180825580915050600190039060005260206000200160009091909190915090816106869190611f83565b505b806006836040516106999190611dc0565b9081526020016040518091039020819055507f498c6259aad88cf0fc1a55b2e39b5cf7a4f52df84a187aee344cfc70c0f61cac82826040516106dc929190612055565b60405180910390a15050565b600160009054906101000a900473ffffffffffffffffffffffffffffffffffffffff1673ffffffffffffffffffffffffffffffffffffffff163373ffffffffffffffffffffffffffffffffffffffff1614610778576040517f08c379a000000000000000000000000000000000000000000000000000000000815260040161076f90611cd2565b60405180910390fd5b61078061130b565b6000479050600081116107c8576040517f08c379a00000000000000000000000000000000000000000000000000000000081526004016107bf906120d1565b60405180910390fd5b600160009054906101000a900473ffffffffffffffffffffffffffffffffffffffff1673ffffffffffffffffffffffffffffffffffffffff166108fc829081150290604051600060405180830381858888f19350505050158015610830573d6000803e3d6000fd5b50600160009054906101000a900473ffffffffffffffffffffffffffffffffffffffff1673ffffffffffffffffffffffffffffffffffffffff167feaff4b37086828766ad3268786972c0cd24259d4c87a80f9d3963a3c3d999b0d826040516108999190611764565b60405180910390a2506108aa611351565b565b600160009054906101000a900473ffffffffffffffffffffffffffffffffffffffff1673ffffffffffffffffffffffffffffffffffffffff163373ffffffffffffffffffffffffffffffffffffffff161461093c576040517f08c379a000000000000000000000000000000000000000000000000000000000815260040161093390611cd2565b60405180910390fd5b6000811161097f576040517f08c379a000000000000000000000000000000000000000000000000000000000815260040161097690612163565b60405180910390fd5b60006002549050816002819055507ff4976f4cd9c5d7792283b1cf3528784a607df9549670c037eb9fb5dea5ea4bbe81836040516109be929190612183565b60405180910390a15050565b600160009054906101000a900473ffffffffffffffffffffffffffffffffffffffff1673ffffffffffffffffffffffffffffffffffffffff163373ffffffffffffffffffffffffffffffffffffffff1614610a5a576040517f08c379a0000000000000000000000000000000000000000000000000000000008152600401610a5190611cd2565b60405180910390fd5b6000600682604051610a6c9190611dc0565b90815260200160405180910390205411610abb576040517f08c379a0000000000000000000000000000000000000000000000000000000008152600401610ab2906121f8565b60405180910390fd5b600681604051610acb9190611dc0565b9081526020016040518091039020600090557f498c6259aad88cf0fc1a55b2e39b5cf7a4f52df84a187aee344cfc70c0f61cac816000604051610b0f929190612253565b60405180910390a150565b600160009054906101000a900473ffffffffffffffffffffffffffffffffffffffff1681565b60036020528160005260406000208181548110610b5c57600080fd5b906000526020600020906003020160009150915050806000015490806001015490806002018054610b8c90611c55565b80601f0160208091040260200160405190810160405280929190818152602001828054610bb890611c55565b8015610c055780601f10610bda57610100808354040283529160200191610c05565b820191906000526020600020905b815481529060010190602001808311610be857829003601f168201915b5050505050905083565b606080600060078054905090508067ffffffffffffffff811115610c3657610c356115e1565b5b604051908082528060200260200182016040528015610c6957816020015b6060815260200190600190039081610c545790505b5092508067ffffffffffffffff811115610c8657610c856115e1565b5b604051908082528060200260200182016040528015610cb45781602001602082028036833780820191505090505b50915060005b81811015610df55760078181548110610cd657610cd5612283565b5b906000526020600020018054610ceb90611c55565b80601f0160208091040260200160405190810160405280929190818152602001828054610d1790611c55565b8015610d645780601f10610d3957610100808354040283529160200191610d64565b820191906000526020600020905b815481529060010190602001808311610d4757829003601f168201915b5050505050848281518110610d7c57610d7b612283565b5b6020026020010181905250600660078281548110610d9d57610d9c612283565b5b90600052602060002001604051610db49190612335565b908152602001604051809103902054838281518110610dd657610dd5612283565b5b6020026020010181815250508080610ded9061237b565b915050610cba565b50509091565b600160009054906101000a900473ffffffffffffffffffffffffffffffffffffffff1673ffffffffffffffffffffffffffffffffffffffff163373ffffffffffffffffffffffffffffffffffffffff1614610e8b576040517f08c379a0000000000000000000000000000000000000000000000000000000008152600401610e8290611cd2565b60405180910390fd5b600073ffffffffffffffffffffffffffffffffffffffff168173ffffffffffffffffffffffffffffffffffffffff1603610efa576040517f08c379a0000000000000000000000000000000000000000000000000000000008152600401610ef19061240f565b60405180910390fd5b6000600160009054906101000a900473ffffffffffffffffffffffffffffffffffffffff16905081600160006101000a81548173ffffffffffffffffffffffffffffffffffffffff021916908373ffffffffffffffffffffffffffffffffffffffff1602179055508173ffffffffffffffffffffffffffffffffffffffff168173ffffffffffffffffffffffffffffffffffffffff167f8be0079c531659141344cd1fd0a4f28419497f9722a3daafe3b4186f6b6457e060405160405180910390a35050565b610fc861130b565b600082511161100c576040517f08c379a00000000000000000000000000000000000000000000000000000000081526004016110039061247b565b60405180910390fd5b600060025490506000825111156110ae57600060068360405161102f9190611dc0565b90815260200160405180910390205490506064811115611084576040517f08c379a000000000000000000000000000000000000000000000000000000000815260040161107b906124e7565b60405180910390fd5b60648160646110939190612507565b6002546110a0919061253b565b6110aa91906125ac565b9150505b8034146110f0576040517f08c379a00000000000000000000000000000000000000000000000000000000081526004016110e790612629565b60405180910390fd5b600560003373ffffffffffffffffffffffffffffffffffffffff1673ffffffffffffffffffffffffffffffffffffffff16815260200190815260200160002060009054906101000a900460ff166111fd576004339080600181540180825580915050600190039060005260206000200160009091909190916101000a81548173ffffffffffffffffffffffffffffffffffffffff021916908373ffffffffffffffffffffffffffffffffffffffff1602179055506001600560003373ffffffffffffffffffffffffffffffffffffffff1673ffffffffffffffffffffffffffffffffffffffff16815260200190815260200160002060006101000a81548160ff0219169083151502179055505b600360003373ffffffffffffffffffffffffffffffffffffffff1673ffffffffffffffffffffffffffffffffffffffff1681526020019081526020016000206040518060600160405280348152602001428152602001858152509080600181540180825580915050600190039060005260206000209060030201600090919091909150600082015181600001556020820151816001015560408201518160020190816112a99190611f83565b5050503373ffffffffffffffffffffffffffffffffffffffff167f5ff25fcf87b113b44b5102433bd818b0feec4af7a5474679a61e546255ccba413485426040516112f693929190612649565b60405180910390a250611307611351565b5050565b600260005403611347576040517f3ee5aeb500000000000000000000000000000000000000000000000000000000815260040160405180910390fd5b6002600081905550565b6001600081905550565b6000604051905090565b600080fd5b600080fd5b600073ffffffffffffffffffffffffffffffffffffffff82169050919050565b600061139a8261136f565b9050919050565b6113aa8161138f565b81146113b557600080fd5b50565b6000813590506113c7816113a1565b92915050565b6000602082840312156113e3576113e2611365565b5b60006113f1848285016113b8565b91505092915050565b600081519050919050565b600082825260208201905092915050565b6000819050602082019050919050565b6000819050919050565b61143981611426565b82525050565b600081519050919050565b600082825260208201905092915050565b60005b8381101561147957808201518184015260208101905061145e565b60008484015250505050565b6000601f19601f8301169050919050565b60006114a18261143f565b6114ab818561144a565b93506114bb81856020860161145b565b6114c481611485565b840191505092915050565b60006060830160008301516114e76000860182611430565b5060208301516114fa6020860182611430565b50604083015184820360408601526115128282611496565b9150508091505092915050565b600061152b83836114cf565b905092915050565b6000602082019050919050565b600061154b826113fa565b6115558185611405565b93508360208202850161156785611416565b8060005b858110156115a35784840389528151611584858261151f565b945061158f83611533565b925060208a0199505060018101905061156b565b50829750879550505050505092915050565b600060208201905081810360008301526115cf8184611540565b905092915050565b600080fd5b600080fd5b7f4e487b7100000000000000000000000000000000000000000000000000000000600052604160045260246000fd5b61161982611485565b810181811067ffffffffffffffff82111715611638576116376115e1565b5b80604052505050565b600061164b61135b565b90506116578282611610565b919050565b600067ffffffffffffffff821115611677576116766115e1565b5b61168082611485565b9050602081019050919050565b82818337600083830152505050565b60006116af6116aa8461165c565b611641565b9050828152602081018484840111156116cb576116ca6115dc565b5b6116d684828561168d565b509392505050565b600082601f8301126116f3576116f26115d7565b5b813561170384826020860161169c565b91505092915050565b60006020828403121561172257611721611365565b5b600082013567ffffffffffffffff8111156117405761173f61136a565b5b61174c848285016116de565b91505092915050565b61175e81611426565b82525050565b60006020820190506117796000830184611755565b92915050565b600081519050919050565b600082825260208201905092915050565b6000819050602082019050919050565b6117b48161138f565b82525050565b60006117c683836117ab565b60208301905092915050565b6000602082019050919050565b60006117ea8261177f565b6117f4818561178a565b93506117ff8361179b565b8060005b8381101561183057815161181788826117ba565b9750611822836117d2565b925050600181019050611803565b5085935050505092915050565b6000602082019050818103600083015261185781846117df565b905092915050565b61186881611426565b811461187357600080fd5b50565b6000813590506118858161185f565b92915050565b600080604083850312156118a2576118a1611365565b5b600083013567ffffffffffffffff8111156118c0576118bf61136a565b5b6118cc858286016116de565b92505060206118dd85828601611876565b9150509250929050565b6000602082840312156118fd576118fc611365565b5b600061190b84828501611876565b91505092915050565b61191d8161138f565b82525050565b60006020820190506119386000830184611914565b92915050565b6000806040838503121561195557611954611365565b5b6000611963858286016113b8565b925050602061197485828601611876565b9150509250929050565b600082825260208201905092915050565b600061199a8261143f565b6119a4818561197e565b93506119b481856020860161145b565b6119bd81611485565b840191505092915050565b60006060820190506119dd6000830186611755565b6119ea6020830185611755565b81810360408301526119fc818461198f565b9050949350505050565b600081519050919050565b600082825260208201905092915050565b6000819050602082019050919050565b6000611a3e8383611496565b905092915050565b6000602082019050919050565b6000611a5e82611a06565b611a688185611a11565b935083602082028501611a7a85611a22565b8060005b85811015611ab65784840389528151611a978582611a32565b9450611aa283611a46565b925060208a01995050600181019050611a7e565b50829750879550505050505092915050565b600081519050919050565b600082825260208201905092915050565b6000819050602082019050919050565b6000611b008383611430565b60208301905092915050565b6000602082019050919050565b6000611b2482611ac8565b611b2e8185611ad3565b9350611b3983611ae4565b8060005b83811015611b6a578151611b518882611af4565b9750611b5c83611b0c565b925050600181019050611b3d565b5085935050505092915050565b60006040820190508181036000830152611b918185611a53565b90508181036020830152611ba58184611b19565b90509392505050565b60008060408385031215611bc557611bc4611365565b5b600083013567ffffffffffffffff811115611be357611be261136a565b5b611bef858286016116de565b925050602083013567ffffffffffffffff811115611c1057611c0f61136a565b5b611c1c858286016116de565b9150509250929050565b7f4e487b7100000000000000000000000000000000000000000000000000000000600052602260045260246000fd5b60006002820490506001821680611c6d57607f821691505b602082108103611c8057611c7f611c26565b5b50919050565b7f43616c6c6572206973206e6f7420746865206f776e6572000000000000000000600082015250565b6000611cbc60178361197e565b9150611cc782611c86565b602082019050919050565b60006020820190508181036000830152611ceb81611caf565b9050919050565b7f446973636f756e742070657263656e74616765206d757374206265206265747760008201527f65656e203020616e642031303000000000000000000000000000000000000000602082015250565b6000611d4e602d8361197e565b9150611d5982611cf2565b604082019050919050565b60006020820190508181036000830152611d7d81611d41565b9050919050565b600081905092915050565b6000611d9a8261143f565b611da48185611d84565b9350611db481856020860161145b565b80840191505092915050565b6000611dcc8284611d8f565b915081905092915050565b60008190508160005260206000209050919050565b60006020601f8301049050919050565b600082821b905092915050565b600060088302611e397fffffffffffffffffffffffffffffffffffffffffffffffffffffffffffffffff82611dfc565b611e438683611dfc565b95508019841693508086168417925050509392505050565b6000819050919050565b6000611e80611e7b611e7684611426565b611e5b565b611426565b9050919050565b6000819050919050565b611e9a83611e65565b611eae611ea682611e87565b848454611e09565b825550505050565b600090565b611ec3611eb6565b611ece818484611e91565b505050565b5b81811015611ef257611ee7600082611ebb565b600181019050611ed4565b5050565b601f821115611f3757611f0881611dd7565b611f1184611dec565b81016020851015611f20578190505b611f34611f2c85611dec565b830182611ed3565b50505b505050565b600082821c905092915050565b6000611f5a60001984600802611f3c565b1980831691505092915050565b6000611f738383611f49565b9150826002028217905092915050565b611f8c8261143f565b67ffffffffffffffff811115611fa557611fa46115e1565b5b611faf8254611c55565b611fba828285611ef6565b600060209050601f831160018114611fed5760008415611fdb578287015190505b611fe58582611f67565b86555061204d565b601f198416611ffb86611dd7565b60005b8281101561202357848901518255600182019150602085019450602081019050611ffe565b86831015612040578489015161203c601f891682611f49565b8355505b6001600288020188555050505b505050505050565b6000604082019050818103600083015261206f818561198f565b905061207e6020830184611755565b9392505050565b7f4e6f2066756e647320746f207769746864726177000000000000000000000000600082015250565b60006120bb60148361197e565b91506120c682612085565b602082019050919050565b600060208201905081810360008301526120ea816120ae565b9050919050565b7f5061796d656e7420616d6f756e74206d7573742062652067726561746572207460008201527f68616e2030000000000000000000000000000000000000000000000000000000602082015250565b600061214d60258361197e565b9150612158826120f1565b604082019050919050565b6000602082019050818103600083015261217c81612140565b9050919050565b60006040820190506121986000830185611755565b6121a56020830184611755565b9392505050565b7f50726f6d6f20636f646520646f6573206e6f7420657869737400000000000000600082015250565b60006121e260198361197e565b91506121ed826121ac565b602082019050919050565b60006020820190508181036000830152612211816121d5565b9050919050565b6000819050919050565b600061223d61223861223384612218565b611e5b565b611426565b9050919050565b61224d81612222565b82525050565b6000604082019050818103600083015261226d818561198f565b905061227c6020830184612244565b9392505050565b7f4e487b7100000000000000000000000000000000000000000000000000000000600052603260045260246000fd5b600081546122bf81611c55565b6122c98186611d84565b945060018216600081146122e457600181146122f95761232c565b60ff198316865281151582028601935061232c565b61230285611dd7565b60005b8381101561232457815481890152600182019150602081019050612305565b838801955050505b50505092915050565b600061234182846122b2565b915081905092915050565b7f4e487b7100000000000000000000000000000000000000000000000000000000600052601160045260246000fd5b600061238682611426565b91507fffffffffffffffffffffffffffffffffffffffffffffffffffffffffffffffff82036123b8576123b761234c565b5b600182019050919050565b7f4e6577206f776e657220697320746865207a65726f2061646472657373000000600082015250565b60006123f9601d8361197e565b9150612404826123c3565b602082019050919050565b60006020820190508181036000830152612428816123ec565b9050919050565b7f4f72646572204944206973207265717569726564000000000000000000000000600082015250565b600061246560148361197e565b91506124708261242f565b602082019050919050565b6000602082019050818103600083015261249481612458565b9050919050565b7f496e76616c696420646973636f756e742070657263656e746167650000000000600082015250565b60006124d1601b8361197e565b91506124dc8261249b565b602082019050919050565b60006020820190508181036000830152612500816124c4565b9050919050565b600061251282611426565b915061251d83611426565b92508282039050818111156125355761253461234c565b5b92915050565b600061254682611426565b915061255183611426565b925082820261255f81611426565b915082820484148315176125765761257561234c565b5b5092915050565b7f4e487b7100000000000000000000000000000000000000000000000000000000600052601260045260246000fd5b60006125b782611426565b91506125c283611426565b9250826125d2576125d161257d565b5b828204905092915050565b7f496e636f7272656374207061796d656e7420616d6f756e740000000000000000600082015250565b600061261360188361197e565b915061261e826125dd565b602082019050919050565b6000602082019050818103600083015261264281612606565b9050919050565b600060608201905061265e6000830186611755565b8181036020830152612670818561198f565b905061267f6040830184611755565b94935050505056fea2646970667358221220ad0ee66c9f1f7fedaa6053173c80e2e8dd3f06428503355761f5803dfb7c2e1e64736f6c63430008140033",
  "linkReferences": {},
  "deployedLinkReferences": {}
}