{
  "_format": "hh-sol-artifact-1",
  "contractName": "Checkout",
  "sourceName": "contracts/Checkout.sol",
  "abi": [
    {
      "inputs": [
        {
          "internalType": "uint256",
          "name": "_fixedPaymentAmount",
          "type": "uint256"
        }
      ],
      "stateMutability": "nonpayable",
      "type": "constructor"
    },
    {
      "inputs": [],
      "name": "ReentrancyGuardReentrantCall",
      "type": "error"
    },
    {
      "anonymous": false,
      "inputs": [
        {
          "indexed": true,
          "internalType": "address",
          "name": "owner",
          "type": "address"
        },
        {
          "indexed": false,
          "internalType": "uint256",
          "name": "amount",
          "type": "uint256"
        }
      ],
      "name": "FundsWithdrawn",
      "type": "event"
    },
    {
      "anonymous": false,
      "inputs": [
        {
          "indexed": true,
          "internalType": "address",
          "name": "previousOwner",
          "type": "address"
        },
        {
          "indexed": true,
          "internalType": "address",
          "name": "newOwner",
          "type": "address"
        }
      ],
      "name": "OwnershipTransferred",
      "type": "event"
    },
    {
      "anonymous": false,
      "inputs": [
        {
          "indexed": false,
          "internalType": "uint256",
          "name": "oldAmount",
          "type": "uint256"
        },
        {
          "indexed": false,
          "internalType": "uint256",
          "name": "newAmount",
          "type": "uint256"
        }
      ],
      "name": "PaymentAmountUpdated",
      "type": "event"
    },
    {
      "anonymous": false,
      "inputs": [
        {
          "indexed": true,
          "internalType": "address",
          "name": "payer",
          "type": "address"
        },
        {
          "indexed": false,
          "internalType": "uint256",
          "name": "amount",
          "type": "uint256"
        },
        {
          "indexed": false,
          "internalType": "string",
          "name": "orderId",
          "type": "string"
        },
        {
          "indexed": false,
          "internalType": "uint256",
          "name": "timestamp",
          "type": "uint256"
        }
      ],
      "name": "PaymentReceived",
      "type": "event"
    },
    {
      "anonymous": false,
      "inputs": [
        {
          "indexed": false,
          "internalType": "string",
          "name": "code",
          "type": "string"
        },
        {
          "indexed": false,
          "internalType": "uint256",
          "name": "discount",
          "type": "uint256"
        }
      ],
      "name": "PromoCodeUpdated",
      "type": "event"
    },
    {
      "inputs": [],
      "name": "fixedPaymentAmount",
      "outputs": [
        {
          "internalType": "uint256",
          "name": "",
          "type": "uint256"
        }
      ],
      "stateMutability": "view",
      "type": "function"
    },
    {
      "inputs": [],
      "name": "getAllPayers",
      "outputs": [
        {
          "internalType": "address[]",
          "name": "",
          "type": "address[]"
        }
      ],
      "stateMutability": "view",
      "type": "function"
    },
    {
      "inputs": [],
      "name": "getAllPromoCodes",
      "outputs": [
        {
          "internalType": "string[]",
          "name": "codes",
          "type": "string[]"
        },
        {
          "internalType": "uint256[]",
          "name": "discounts",
          "type": "uint256[]"
        }
      ],
      "stateMutability": "view",
      "type": "function"
    },
    {
      "inputs": [],
      "name": "getBalance",
      "outputs": [
        {
          "internalType": "uint256",
          "name": "",
          "type": "uint256"
        }
      ],
      "stateMutability": "view",
      "type": "function"
    },
    {
      "inputs": [
        {
          "internalType": "address",
          "name": "payer",
          "type": "address"
        }
      ],
      "name": "getPaymentsByAddress",
      "outputs": [
        {
          "components": [
            {
              "internalType": "uint256",
              "name": "amount",
              "type": "uint256"
            },
            {
              "internalType": "uint256",
              "name": "timestamp",
              "type": "uint256"
            },
            {
              "internalType": "string",
              "name": "orderId",
              "type": "string"
            }
          ],
          "internalType": "struct Checkout.Payment[]",
          "name": "",
          "type": "tuple[]"
        }
      ],
      "stateMutability": "view",
      "type": "function"
    },
    {
      "inputs": [],
      "name": "owner",
      "outputs": [
        {
          "internalType": "address",
          "name": "",
          "type": "address"
        }
      ],
      "stateMutability": "view",
      "type": "function"
    },
    {
      "inputs": [
        {
          "internalType": "string",
          "name": "orderId",
          "type": "string"
        },
        {
          "internalType": "string",
          "name": "promoCode",
          "type": "string"
        }
      ],
      "name": "pay",
      "outputs": [],
      "stateMutability": "payable",
      "type": "function"
    },
    {
      "inputs": [
        {
          "internalType": "address",
          "name": "",
          "type": "address"
        },
        {
          "internalType": "uint256",
          "name": "",
          "type": "uint256"
        }
      ],
      "name": "payments",
      "outputs": [
        {
          "internalType": "uint256",
          "name": "amount",
          "type": "uint256"
        },
        {
          "internalType": "uint256",
          "name": "timestamp",
          "type": "uint256"
        },
        {
          "internalType": "string",
          "name": "orderId",
          "type": "string"
        }
      ],
      "stateMutability": "view",
      "type": "function"
    },
    {
      "inputs": [
        {
          "internalType": "string",
          "name": "",
          "type": "string"
        }
      ],
      "name": "promoCodes",
      "outputs": [
        {
          "internalType": "uint256",
          "name": "",
          "type": "uint256"
        }
      ],
      "stateMutability": "view",
      "type": "function"
    },
    {
      "inputs": [
        {
          "internalType": "string",
          "name": "code",
          "type": "string"
        }
      ],
      "name": "removePromoCode",
      "outputs": [],
      "stateMutability": "nonpayable",
      "type": "function"
    },
    {
      "inputs": [
        {
          "internalType": "string",
          "name": "code",
          "type": "string"
        },
        {
          "internalType": "uint256",
          "name": "discount",
          "type": "uint256"
        }
      ],
      "name": "setPromoCode",
      "outputs": [],
      "stateMutability": "nonpayable",
      "type": "function"
    },
    {
      "inputs": [
        {
          "internalType": "address",
          "name": "newOwner",
          "type": "address"
        }
      ],
      "name": "transferOwnership",
      "outputs": [],
      "stateMutability": "nonpayable",
      "type": "function"
    },
    {
      "inputs": [
        {
          "internalType": "uint256",
          "name": "newAmount",
          "type": "uint256"
        }
      ],
      "name": "updatePaymentAmount",
      "outputs": [],
      "stateMutability": "nonpayable",
      "type": "function"
    },
    {
      "inputs": [],
      "name": "withdraw",
      "outputs": [],
      "stateMutability": "nonpayable",
      "type": "function"
    }
  ],
  "bytecode": "0x60806040523480156200001157600080fd5b506040516200261d3803806200261d8339818101604052810190620000379190620000ce565b600160008190555033600160006101000a81548173ffffffffffffffffffffffffffffffffffffffff021916908373ffffffffffffffffffffffffffffffffffffffff160217905550806002819055505062000100565b600080fd5b6000819050919050565b620000a88162000093565b8114620000b457600080fd5b50565b600081519050620000c8816200009d565b92915050565b600060208284031215620000e757620000e66200008e565b5b6000620000f784828501620000b7565b91505092915050565b61250d80620001106000396000f3fe6080604052600436106100dd5760003560e01c80633ce2ff421161007f578063ab63385c11610059578063ab63385c1461029a578063ad444b09146102d9578063f2fde38b14610305578063f46e588c1461032e576100dd565b80633ce2ff421461021d578063574082af146102465780638da5cb5b1461026f576100dd565b806312b77700116100bb57806312b777001461018757806316cc455f146101b25780631e07ef96146101dd5780633ccfd60b14610206576100dd565b806308b80c60146100e25780630b54f9981461011f57806312065fe01461015c575b600080fd5b3480156100ee57600080fd5b506101096004803603810190610104919061121d565b61034a565b6040516101169190611405565b60405180910390f35b34801561012b57600080fd5b506101466004803603810190610141919061155c565b61048e565b60405161015391906115b4565b60405180910390f35b34801561016857600080fd5b506101716104bc565b60405161017e91906115b4565b60405180910390f35b34801561019357600080fd5b5061019c6104c4565b6040516101a991906115b4565b60405180910390f35b3480156101be57600080fd5b506101c76104ca565b6040516101d4919061168d565b60405180910390f35b3480156101e957600080fd5b5061020460048036038101906101ff91906116db565b610558565b005b34801561021257600080fd5b5061021b610658565b005b34801561022957600080fd5b50610244600480360381019061023f9190611737565b61081c565b005b34801561025257600080fd5b5061026d6004803603810190610268919061155c565b6108aa565b005b34801561027b57600080fd5b5061028461096a565b6040516102919190611773565b60405180910390f35b3480156102a657600080fd5b506102c160048036038101906102bc919061178e565b610990565b6040516102d093929190611818565b60405180910390f35b3480156102e557600080fd5b506102ee610a5f565b6040516102fc9291906119c7565b60405180910390f35b34801561031157600080fd5b5061032c6004803603810190610327919061121d565b610c4b565b005b610348600480360381019061034391906119fe565b610e10565b005b6060600360008373ffffffffffffffffffffffffffffffffffffffff1673ffffffffffffffffffffffffffffffffffffffff168152602001908152602001600020805480602002602001604051908101604052809291908181526020016000905b82821015610483578382906000526020600020906003020160405180606001604052908160008201548152602001600182015481526020016002820180546103f290611aa5565b80601f016020809104026020016040519081016040528092919081815260200182805461041e90611aa5565b801561046b5780601f106104405761010080835404028352916020019161046b565b820191906000526020600020905b81548152906001019060200180831161044e57829003601f168201915b505050505081525050815260200190600101906103ab565b505050509050919050565b6006818051602081018201805184825260208301602085012081835280955050505050506000915090505481565b600047905090565b60025481565b6060600480548060200260200160405190810160405280929190818152602001828054801561054e57602002820191906000526020600020905b8160009054906101000a900473ffffffffffffffffffffffffffffffffffffffff1673ffffffffffffffffffffffffffffffffffffffff1681526020019060010190808311610504575b5050505050905090565b606481111561059c576040517f08c379a000000000000000000000000000000000000000000000000000000000815260040161059390611b48565b60405180910390fd5b60006006836040516105ae9190611ba4565b908152602001604051809103902054036105f8576007829080600181540180825580915050600190039060005260206000200160009091909190915090816105f69190611d67565b505b806006836040516106099190611ba4565b9081526020016040518091039020819055507f498c6259aad88cf0fc1a55b2e39b5cf7a4f52df84a187aee344cfc70c0f61cac828260405161064c929190611e39565b60405180910390a15050565b600160009054906101000a900473ffffffffffffffffffffffffffffffffffffffff1673ffffffffffffffffffffffffffffffffffffffff163373ffffffffffffffffffffffffffffffffffffffff16146106e8576040517f08c379a00000000000000000000000000000000000000000000000000000000081526004016106df90611eb5565b60405180910390fd5b6106f061115b565b600047905060008111610738576040517f08c379a000000000000000000000000000000000000000000000000000000000815260040161072f90611f21565b60405180910390fd5b600160009054906101000a900473ffffffffffffffffffffffffffffffffffffffff1673ffffffffffffffffffffffffffffffffffffffff166108fc829081150290604051600060405180830381858888f193505050501580156107a0573d6000803e3d6000fd5b50600160009054906101000a900473ffffffffffffffffffffffffffffffffffffffff1673ffffffffffffffffffffffffffffffffffffffff167feaff4b37086828766ad3268786972c0cd24259d4c87a80f9d3963a3c3d999b0d8260405161080991906115b4565b60405180910390a25061081a6111a1565b565b6000811161085f576040517f08c379a000000000000000000000000000000000000000000000000000000000815260040161085690611fb3565b60405180910390fd5b60006002549050816002819055507ff4976f4cd9c5d7792283b1cf3528784a607df9549670c037eb9fb5dea5ea4bbe818360405161089e929190611fd3565b60405180910390a15050565b60006006826040516108bc9190611ba4565b9081526020016040518091039020541161090b576040517f08c379a000000000000000000000000000000000000000000000000000000000815260040161090290612048565b60405180910390fd5b60068160405161091b9190611ba4565b9081526020016040518091039020600090557f498c6259aad88cf0fc1a55b2e39b5cf7a4f52df84a187aee344cfc70c0f61cac81600060405161095f9291906120a3565b60405180910390a150565b600160009054906101000a900473ffffffffffffffffffffffffffffffffffffffff1681565b600360205281600052604060002081815481106109ac57600080fd5b9060005260206000209060030201600091509150508060000154908060010154908060020180546109dc90611aa5565b80601f0160208091040260200160405190810160405280929190818152602001828054610a0890611aa5565b8015610a555780601f10610a2a57610100808354040283529160200191610a55565b820191906000526020600020905b815481529060010190602001808311610a3857829003601f168201915b5050505050905083565b606080600060078054905090508067ffffffffffffffff811115610a8657610a85611431565b5b604051908082528060200260200182016040528015610ab957816020015b6060815260200190600190039081610aa45790505b5092508067ffffffffffffffff811115610ad657610ad5611431565b5b604051908082528060200260200182016040528015610b045781602001602082028036833780820191505090505b50915060005b81811015610c455760078181548110610b2657610b256120d3565b5b906000526020600020018054610b3b90611aa5565b80601f0160208091040260200160405190810160405280929190818152602001828054610b6790611aa5565b8015610bb45780601f10610b8957610100808354040283529160200191610bb4565b820191906000526020600020905b815481529060010190602001808311610b9757829003601f168201915b5050505050848281518110610bcc57610bcb6120d3565b5b6020026020010181905250600660078281548110610bed57610bec6120d3565b5b90600052602060002001604051610c049190612185565b908152602001604051809103902054838281518110610c2657610c256120d3565b5b6020026020010181815250508080610c3d906121cb565b915050610b0a565b50509091565b600160009054906101000a900473ffffffffffffffffffffffffffffffffffffffff1673ffffffffffffffffffffffffffffffffffffffff163373ffffffffffffffffffffffffffffffffffffffff1614610cdb576040517f08c379a0000000000000000000000000000000000000000000000000000000008152600401610cd290611eb5565b60405180910390fd5b600073ffffffffffffffffffffffffffffffffffffffff168173ffffffffffffffffffffffffffffffffffffffff1603610d4a576040517f08c379a0000000000000000000000000000000000000000000000000000000008152600401610d419061225f565b60405180910390fd5b6000600160009054906101000a900473ffffffffffffffffffffffffffffffffffffffff16905081600160006101000a81548173ffffffffffffffffffffffffffffffffffffffff021916908373ffffffffffffffffffffffffffffffffffffffff1602179055508173ffffffffffffffffffffffffffffffffffffffff168173ffffffffffffffffffffffffffffffffffffffff167f8be0079c531659141344cd1fd0a4f28419497f9722a3daafe3b4186f6b6457e060405160405180910390a35050565b610e1861115b565b6000825111610e5c576040517f08c379a0000000000000000000000000000000000000000000000000000000008152600401610e53906122cb565b60405180910390fd5b60006002549050600082511115610efe576000600683604051610e7f9190611ba4565b90815260200160405180910390205490506064811115610ed4576040517f08c379a0000000000000000000000000000000000000000000000000000000008152600401610ecb90612337565b60405180910390fd5b6064816064610ee39190612357565b600254610ef0919061238b565b610efa91906123fc565b9150505b803414610f40576040517f08c379a0000000000000000000000000000000000000000000000000000000008152600401610f3790612479565b60405180910390fd5b600560003373ffffffffffffffffffffffffffffffffffffffff1673ffffffffffffffffffffffffffffffffffffffff16815260200190815260200160002060009054906101000a900460ff1661104d576004339080600181540180825580915050600190039060005260206000200160009091909190916101000a81548173ffffffffffffffffffffffffffffffffffffffff021916908373ffffffffffffffffffffffffffffffffffffffff1602179055506001600560003373ffffffffffffffffffffffffffffffffffffffff1673ffffffffffffffffffffffffffffffffffffffff16815260200190815260200160002060006101000a81548160ff0219169083151502179055505b600360003373ffffffffffffffffffffffffffffffffffffffff1673ffffffffffffffffffffffffffffffffffffffff1681526020019081526020016000206040518060600160405280348152602001428152602001858152509080600181540180825580915050600190039060005260206000209060030201600090919091909150600082015181600001556020820151816001015560408201518160020190816110f99190611d67565b5050503373ffffffffffffffffffffffffffffffffffffffff167f5ff25fcf87b113b44b5102433bd818b0feec4af7a5474679a61e546255ccba4134854260405161114693929190612499565b60405180910390a2506111576111a1565b5050565b600260005403611197576040517f3ee5aeb500000000000000000000000000000000000000000000000000000000815260040160405180910390fd5b6002600081905550565b6001600081905550565b6000604051905090565b600080fd5b600080fd5b600073ffffffffffffffffffffffffffffffffffffffff82169050919050565b60006111ea826111bf565b9050919050565b6111fa816111df565b811461120557600080fd5b50565b600081359050611217816111f1565b92915050565b600060208284031215611233576112326111b5565b5b600061124184828501611208565b91505092915050565b600081519050919050565b600082825260208201905092915050565b6000819050602082019050919050565b6000819050919050565b61128981611276565b82525050565b600081519050919050565b600082825260208201905092915050565b60005b838110156112c95780820151818401526020810190506112ae565b60008484015250505050565b6000601f19601f8301169050919050565b60006112f18261128f565b6112fb818561129a565b935061130b8185602086016112ab565b611314816112d5565b840191505092915050565b60006060830160008301516113376000860182611280565b50602083015161134a6020860182611280565b506040830151848203604086015261136282826112e6565b9150508091505092915050565b600061137b838361131f565b905092915050565b6000602082019050919050565b600061139b8261124a565b6113a58185611255565b9350836020820285016113b785611266565b8060005b858110156113f357848403895281516113d4858261136f565b94506113df83611383565b925060208a019950506001810190506113bb565b50829750879550505050505092915050565b6000602082019050818103600083015261141f8184611390565b905092915050565b600080fd5b600080fd5b7f4e487b7100000000000000000000000000000000000000000000000000000000600052604160045260246000fd5b611469826112d5565b810181811067ffffffffffffffff8211171561148857611487611431565b5b80604052505050565b600061149b6111ab565b90506114a78282611460565b919050565b600067ffffffffffffffff8211156114c7576114c6611431565b5b6114d0826112d5565b9050602081019050919050565b82818337600083830152505050565b60006114ff6114fa846114ac565b611491565b90508281526020810184848401111561151b5761151a61142c565b5b6115268482856114dd565b509392505050565b600082601f83011261154357611542611427565b5b81356115538482602086016114ec565b91505092915050565b600060208284031215611572576115716111b5565b5b600082013567ffffffffffffffff8111156115905761158f6111ba565b5b61159c8482850161152e565b91505092915050565b6115ae81611276565b82525050565b60006020820190506115c960008301846115a5565b92915050565b600081519050919050565b600082825260208201905092915050565b6000819050602082019050919050565b611604816111df565b82525050565b600061161683836115fb565b60208301905092915050565b6000602082019050919050565b600061163a826115cf565b61164481856115da565b935061164f836115eb565b8060005b83811015611680578151611667888261160a565b975061167283611622565b925050600181019050611653565b5085935050505092915050565b600060208201905081810360008301526116a7818461162f565b905092915050565b6116b881611276565b81146116c357600080fd5b50565b6000813590506116d5816116af565b92915050565b600080604083850312156116f2576116f16111b5565b5b600083013567ffffffffffffffff8111156117105761170f6111ba565b5b61171c8582860161152e565b925050602061172d858286016116c6565b9150509250929050565b60006020828403121561174d5761174c6111b5565b5b600061175b848285016116c6565b91505092915050565b61176d816111df565b82525050565b60006020820190506117886000830184611764565b92915050565b600080604083850312156117a5576117a46111b5565b5b60006117b385828601611208565b92505060206117c4858286016116c6565b9150509250929050565b600082825260208201905092915050565b60006117ea8261128f565b6117f481856117ce565b93506118048185602086016112ab565b61180d816112d5565b840191505092915050565b600060608201905061182d60008301866115a5565b61183a60208301856115a5565b818103604083015261184c81846117df565b9050949350505050565b600081519050919050565b600082825260208201905092915050565b6000819050602082019050919050565b600061188e83836112e6565b905092915050565b6000602082019050919050565b60006118ae82611856565b6118b88185611861565b9350836020820285016118ca85611872565b8060005b8581101561190657848403895281516118e78582611882565b94506118f283611896565b925060208a019950506001810190506118ce565b50829750879550505050505092915050565b600081519050919050565b600082825260208201905092915050565b6000819050602082019050919050565b60006119508383611280565b60208301905092915050565b6000602082019050919050565b600061197482611918565b61197e8185611923565b935061198983611934565b8060005b838110156119ba5781516119a18882611944565b97506119ac8361195c565b92505060018101905061198d565b5085935050505092915050565b600060408201905081810360008301526119e181856118a3565b905081810360208301526119f58184611969565b90509392505050565b60008060408385031215611a1557611a146111b5565b5b600083013567ffffffffffffffff811115611a3357611a326111ba565b5b611a3f8582860161152e565b925050602083013567ffffffffffffffff811115611a6057611a5f6111ba565b5b611a6c8582860161152e565b9150509250929050565b7f4e487b7100000000000000000000000000000000000000000000000000000000600052602260045260246000fd5b60006002820490506001821680611abd57607f821691505b602082108103611ad057611acf611a76565b5b50919050565b7f446973636f756e742070657263656e74616765206d757374206265206265747760008201527f65656e203020616e642031303000000000000000000000000000000000000000602082015250565b6000611b32602d836117ce565b9150611b3d82611ad6565b604082019050919050565b60006020820190508181036000830152611b6181611b25565b9050919050565b600081905092915050565b6000611b7e8261128f565b611b888185611b68565b9350611b988185602086016112ab565b80840191505092915050565b6000611bb08284611b73565b915081905092915050565b60008190508160005260206000209050919050565b60006020601f8301049050919050565b600082821b905092915050565b600060088302611c1d7fffffffffffffffffffffffffffffffffffffffffffffffffffffffffffffffff82611be0565b611c278683611be0565b95508019841693508086168417925050509392505050565b6000819050919050565b6000611c64611c5f611c5a84611276565b611c3f565b611276565b9050919050565b6000819050919050565b611c7e83611c49565b611c92611c8a82611c6b565b848454611bed565b825550505050565b600090565b611ca7611c9a565b611cb2818484611c75565b505050565b5b81811015611cd657611ccb600082611c9f565b600181019050611cb8565b5050565b601f821115611d1b57611cec81611bbb565b611cf584611bd0565b81016020851015611d04578190505b611d18611d1085611bd0565b830182611cb7565b50505b505050565b600082821c905092915050565b6000611d3e60001984600802611d20565b1980831691505092915050565b6000611d578383611d2d565b9150826002028217905092915050565b611d708261128f565b67ffffffffffffffff811115611d8957611d88611431565b5b611d938254611aa5565b611d9e828285611cda565b600060209050601f831160018114611dd15760008415611dbf578287015190505b611dc98582611d4b565b865550611e31565b601f198416611ddf86611bbb565b60005b82811015611e0757848901518255600182019150602085019450602081019050611de2565b86831015611e245784890151611e20601f891682611d2d565b8355505b6001600288020188555050505b505050505050565b60006040820190508181036000830152611e5381856117df565b9050611e6260208301846115a5565b9392505050565b7f43616c6c6572206973206e6f7420746865206f776e6572000000000000000000600082015250565b6000611e9f6017836117ce565b9150611eaa82611e69565b602082019050919050565b60006020820190508181036000830152611ece81611e92565b9050919050565b7f4e6f2066756e647320746f207769746864726177000000000000000000000000600082015250565b6000611f0b6014836117ce565b9150611f1682611ed5565b602082019050919050565b60006020820190508181036000830152611f3a81611efe565b9050919050565b7f5061796d656e7420616d6f756e74206d7573742062652067726561746572207460008201527f68616e2030000000000000000000000000000000000000000000000000000000602082015250565b6000611f9d6025836117ce565b9150611fa882611f41565b604082019050919050565b60006020820190508181036000830152611fcc81611f90565b9050919050565b6000604082019050611fe860008301856115a5565b611ff560208301846115a5565b9392505050565b7f50726f6d6f20636f646520646f6573206e6f7420657869737400000000000000600082015250565b60006120326019836117ce565b915061203d82611ffc565b602082019050919050565b6000602082019050818103600083015261206181612025565b9050919050565b6000819050919050565b600061208d61208861208384612068565b611c3f565b611276565b9050919050565b61209d81612072565b82525050565b600060408201905081810360008301526120bd81856117df565b90506120cc6020830184612094565b9392505050565b7f4e487b7100000000000000000000000000000000000000000000000000000000600052603260045260246000fd5b6000815461210f81611aa5565b6121198186611b68565b9450600182166000811461213457600181146121495761217c565b60ff198316865281151582028601935061217c565b61215285611bbb565b60005b8381101561217457815481890152600182019150602081019050612155565b838801955050505b50505092915050565b60006121918284612102565b915081905092915050565b7f4e487b7100000000000000000000000000000000000000000000000000000000600052601160045260246000fd5b60006121d682611276565b91507fffffffffffffffffffffffffffffffffffffffffffffffffffffffffffffffff82036122085761220761219c565b5b600182019050919050565b7f4e6577206f776e657220697320746865207a65726f2061646472657373000000600082015250565b6000612249601d836117ce565b915061225482612213565b602082019050919050565b600060208201905081810360008301526122788161223c565b9050919050565b7f4f72646572204944206973207265717569726564000000000000000000000000600082015250565b60006122b56014836117ce565b91506122c08261227f565b602082019050919050565b600060208201905081810360008301526122e4816122a8565b9050919050565b7f496e76616c696420646973636f756e742070657263656e746167650000000000600082015250565b6000612321601b836117ce565b915061232c826122eb565b602082019050919050565b6000602082019050818103600083015261235081612314565b9050919050565b600061236282611276565b915061236d83611276565b92508282039050818111156123855761238461219c565b5b92915050565b600061239682611276565b91506123a183611276565b92508282026123af81611276565b915082820484148315176123c6576123c561219c565b5b5092915050565b7f4e487b7100000000000000000000000000000000000000000000000000000000600052601260045260246000fd5b600061240782611276565b915061241283611276565b925082612422576124216123cd565b5b828204905092915050565b7f496e636f7272656374207061796d656e7420616d6f756e740000000000000000600082015250565b60006124636018836117ce565b915061246e8261242d565b602082019050919050565b6000602082019050818103600083015261249281612456565b9050919050565b60006060820190506124ae60008301866115a5565b81810360208301526124c081856117df565b90506124cf60408301846115a5565b94935050505056fea264697066735822122020f917141f258ba85429aaedddfe36ed43bb7e248d4c8fd08ea7349f83274a4e64736f6c63430008140033",
  "linkReferences": {},
  "deployedLinkReferences": {}
}